{
  "_format": "hh-sol-artifact-1",
  "contractName": "LenderFunding",
  "sourceName": "contracts/LenderFunding.sol",
  "abi": [
    {
      "anonymous": false,
      "inputs": [
        {
          "indexed": false,
          "internalType": "uint256",
          "name": "loanId",
          "type": "uint256"
        },
        {
          "indexed": false,
          "internalType": "address",
          "name": "borrower",
          "type": "address"
        },
        {
          "indexed": false,
          "internalType": "uint256",
          "name": "amount",
          "type": "uint256"
        },
        {
          "indexed": false,
          "internalType": "uint256",
          "name": "interestRate",
          "type": "uint256"
        },
        {
          "indexed": false,
          "internalType": "uint256",
          "name": "repaymentDeadline",
          "type": "uint256"
        }
      ],
      "name": "LoanCreated",
      "type": "event"
    },
    {
      "inputs": [
        {
          "internalType": "uint256",
          "name": "amount",
          "type": "uint256"
        },
        {
          "internalType": "uint256",
          "name": "interestRate",
          "type": "uint256"
        },
        {
          "internalType": "uint256",
          "name": "repaymentDeadline",
          "type": "uint256"
        }
      ],
      "name": "createLoanRequest",
      "outputs": [],
      "stateMutability": "nonpayable",
      "type": "function"
    },
    {
      "inputs": [
        {
          "internalType": "uint256",
          "name": "loanId",
          "type": "uint256"
        }
      ],
      "name": "getLoanStatus",
      "outputs": [
        {
          "internalType": "string",
          "name": "",
          "type": "string"
        }
      ],
      "stateMutability": "view",
      "type": "function"
    },
    {
      "inputs": [
        {
          "internalType": "uint256",
          "name": "loanId",
          "type": "uint256"
        }
      ],
      "name": "lendFunds",
      "outputs": [],
      "stateMutability": "payable",
      "type": "function"
    },
    {
      "inputs": [],
      "name": "loanCount",
      "outputs": [
        {
          "internalType": "uint256",
          "name": "",
          "type": "uint256"
        }
      ],
      "stateMutability": "view",
      "type": "function"
    },
    {
      "inputs": [
        {
          "internalType": "uint256",
          "name": "",
          "type": "uint256"
        }
      ],
      "name": "loans",
      "outputs": [
        {
          "internalType": "uint256",
          "name": "amount",
          "type": "uint256"
        },
        {
          "internalType": "uint256",
          "name": "interestRate",
          "type": "uint256"
        },
        {
          "internalType": "uint256",
          "name": "repaymentDeadline",
          "type": "uint256"
        },
        {
          "internalType": "address",
          "name": "borrower",
          "type": "address"
        },
        {
          "internalType": "address",
          "name": "lender",
          "type": "address"
        },
        {
          "internalType": "bool",
          "name": "isFunded",
          "type": "bool"
        },
        {
          "internalType": "bool",
          "name": "isRepaid",
          "type": "bool"
        },
        {
          "internalType": "enum LoanRequest.LoanStatus",
          "name": "status",
          "type": "uint8"
        }
      ],
      "stateMutability": "view",
      "type": "function"
    }
  ],
  "bytecode": "0x6080604052348015600f57600080fd5b50610dd98061001f6000396000f3fe60806040526004361061004a5760003560e01c80631443e4e71461004f5780631c4fd41c14610078578063aa2d5721146100b5578063ce63094d146100d1578063e1ec3c68146100fc575b600080fd5b34801561005b57600080fd5b50610076600480360381019061007191906108e8565b610140565b005b34801561008457600080fd5b5061009f600480360381019061009a919061093b565b610351565b6040516100ac91906109f8565b60405180910390f35b6100cf60048036038101906100ca919061093b565b610628565b005b3480156100dd57600080fd5b506100e66107f8565b6040516100f39190610a29565b60405180910390f35b34801561010857600080fd5b50610123600480360381019061011e919061093b565b6107fe565b604051610137989796959493929190610b17565b60405180910390f35b6001600081548092919061015390610bc4565b91905055506040518061010001604052808481526020018381526020018281526020013373ffffffffffffffffffffffffffffffffffffffff168152602001600073ffffffffffffffffffffffffffffffffffffffff168152602001600015158152602001600015158152602001600060038111156101d5576101d4610aa0565b5b815250600080600154815260200190815260200160002060008201518160000155602082015181600101556040820151816002015560608201518160030160006101000a81548173ffffffffffffffffffffffffffffffffffffffff021916908373ffffffffffffffffffffffffffffffffffffffff16021790555060808201518160040160006101000a81548173ffffffffffffffffffffffffffffffffffffffff021916908373ffffffffffffffffffffffffffffffffffffffff16021790555060a08201518160040160146101000a81548160ff02191690831515021790555060c08201518160040160156101000a81548160ff02191690831515021790555060e08201518160040160166101000a81548160ff0219169083600381111561030357610302610aa0565b5b02179055509050507fb2cca1719ad611d325136b9c9a4357f412d33694d93c60d4c1b6e922d524cf5960015433858585604051610344959493929190610c0c565b60405180910390a1505050565b606060008211801561036557506001548211155b6103a4576040517f08c379a000000000000000000000000000000000000000000000000000000000815260040161039b90610cab565b60405180910390fd5b6000806000848152602001908152602001600020604051806101000160405290816000820154815260200160018201548152602001600282015481526020016003820160009054906101000a900473ffffffffffffffffffffffffffffffffffffffff1673ffffffffffffffffffffffffffffffffffffffff1673ffffffffffffffffffffffffffffffffffffffff1681526020016004820160009054906101000a900473ffffffffffffffffffffffffffffffffffffffff1673ffffffffffffffffffffffffffffffffffffffff1673ffffffffffffffffffffffffffffffffffffffff1681526020016004820160149054906101000a900460ff161515151581526020016004820160159054906101000a900460ff161515151581526020016004820160169054906101000a900460ff1660038111156104e9576104e8610aa0565b5b60038111156104fb576104fa610aa0565b5b8152505090508060c0015115610549576040518060400160405280600681526020017f5265706169640000000000000000000000000000000000000000000000000000815250915050610623565b42816040015110801561055e57508060c00151155b156105a1576040518060400160405280600981526020017f44656661756c7465640000000000000000000000000000000000000000000000815250915050610623565b8060a00151156105e9576040518060400160405280600881526020017f417070726f766564000000000000000000000000000000000000000000000000815250915050610623565b6040518060400160405280600781526020017f50656e64696e67000000000000000000000000000000000000000000000000008152509150505b919050565b600080600083815260200190815260200160002090506000600381111561065257610651610aa0565b5b8160040160169054906101000a900460ff16600381111561067657610675610aa0565b5b146106b6576040517f08c379a00000000000000000000000000000000000000000000000000000000081526004016106ad90610d17565b60405180910390fd5b806000015434146106fc576040517f08c379a00000000000000000000000000000000000000000000000000000000081526004016106f390610d83565b60405180910390fd5b8060030160009054906101000a900473ffffffffffffffffffffffffffffffffffffffff1673ffffffffffffffffffffffffffffffffffffffff166108fc349081150290604051600060405180830381858888f19350505050158015610766573d6000803e3d6000fd5b5060018160040160146101000a81548160ff021916908315150217905550338160040160006101000a81548173ffffffffffffffffffffffffffffffffffffffff021916908373ffffffffffffffffffffffffffffffffffffffff16021790555060018160040160166101000a81548160ff021916908360038111156107ef576107ee610aa0565b5b02179055505050565b60015481565b60006020528060005260406000206000915090508060000154908060010154908060020154908060030160009054906101000a900473ffffffffffffffffffffffffffffffffffffffff16908060040160009054906101000a900473ffffffffffffffffffffffffffffffffffffffff16908060040160149054906101000a900460ff16908060040160159054906101000a900460ff16908060040160169054906101000a900460ff16905088565b600080fd5b6000819050919050565b6108c5816108b2565b81146108d057600080fd5b50565b6000813590506108e2816108bc565b92915050565b600080600060608486031215610901576109006108ad565b5b600061090f868287016108d3565b9350506020610920868287016108d3565b9250506040610931868287016108d3565b9150509250925092565b600060208284031215610951576109506108ad565b5b600061095f848285016108d3565b91505092915050565b600081519050919050565b600082825260208201905092915050565b60005b838110156109a2578082015181840152602081019050610987565b60008484015250505050565b6000601f19601f8301169050919050565b60006109ca82610968565b6109d48185610973565b93506109e4818560208601610984565b6109ed816109ae565b840191505092915050565b60006020820190508181036000830152610a1281846109bf565b905092915050565b610a23816108b2565b82525050565b6000602082019050610a3e6000830184610a1a565b92915050565b600073ffffffffffffffffffffffffffffffffffffffff82169050919050565b6000610a6f82610a44565b9050919050565b610a7f81610a64565b82525050565b60008115159050919050565b610a9a81610a85565b82525050565b7f4e487b7100000000000000000000000000000000000000000000000000000000600052602160045260246000fd5b60048110610ae057610adf610aa0565b5b50565b6000819050610af182610acf565b919050565b6000610b0182610ae3565b9050919050565b610b1181610af6565b82525050565b600061010082019050610b2d600083018b610a1a565b610b3a602083018a610a1a565b610b476040830189610a1a565b610b546060830188610a76565b610b616080830187610a76565b610b6e60a0830186610a91565b610b7b60c0830185610a91565b610b8860e0830184610b08565b9998505050505050505050565b7f4e487b7100000000000000000000000000000000000000000000000000000000600052601160045260246000fd5b6000610bcf826108b2565b91507fffffffffffffffffffffffffffffffffffffffffffffffffffffffffffffffff8203610c0157610c00610b95565b5b600182019050919050565b600060a082019050610c216000830188610a1a565b610c2e6020830187610a76565b610c3b6040830186610a1a565b610c486060830185610a1a565b610c556080830184610a1a565b9695505050505050565b7f4c6f616e20646f6573206e6f7420657869737400000000000000000000000000600082015250565b6000610c95601383610973565b9150610ca082610c5f565b602082019050919050565b60006020820190508181036000830152610cc481610c88565b9050919050565b7f4c6f616e2072657175657374206973206e6f74206f70656e0000000000000000600082015250565b6000610d01601883610973565b9150610d0c82610ccb565b602082019050919050565b60006020820190508181036000830152610d3081610cf4565b9050919050565b7f496e636f72726563742066756e64696e6720616d6f756e740000000000000000600082015250565b6000610d6d601883610973565b9150610d7882610d37565b602082019050919050565b60006020820190508181036000830152610d9c81610d60565b905091905056fea26469706673582212200a35e65acd78eb4e56687a4f5ca8bf3ff77386cc1db87641f6b91bf1fdc50f7a64736f6c634300081c0033",
  "linkReferences": {},
  "deployedLinkReferences": {}
}