{
  "_format": "hh-sol-artifact-1",
  "contractName": "LoanRepayment",
  "sourceName": "contracts/LoanRepayment.sol",
  "abi": [
    {
      "anonymous": false,
      "inputs": [
        {
          "indexed": false,
          "internalType": "uint256",
          "name": "loanId",
          "type": "uint256"
        },
        {
          "indexed": false,
          "internalType": "address",
          "name": "borrower",
          "type": "address"
        },
        {
          "indexed": false,
          "internalType": "uint256",
          "name": "amount",
          "type": "uint256"
        },
        {
          "indexed": false,
          "internalType": "uint256",
          "name": "interestRate",
          "type": "uint256"
        },
        {
          "indexed": false,
          "internalType": "uint256",
          "name": "repaymentDeadline",
          "type": "uint256"
        }
      ],
      "name": "LoanCreated",
      "type": "event"
    },
    {
      "anonymous": false,
      "inputs": [
        {
          "indexed": false,
          "internalType": "uint256",
          "name": "loanId",
          "type": "uint256"
        },
        {
          "indexed": false,
          "internalType": "address",
          "name": "lender",
          "type": "address"
        },
        {
          "indexed": false,
          "internalType": "uint256",
          "name": "amount",
          "type": "uint256"
        }
      ],
      "name": "LoanFunded",
      "type": "event"
    },
    {
      "inputs": [
        {
          "internalType": "uint256",
          "name": "amount",
          "type": "uint256"
        },
        {
          "internalType": "uint256",
          "name": "interestRate",
          "type": "uint256"
        },
        {
          "internalType": "uint256",
          "name": "repaymentDeadline",
          "type": "uint256"
        }
      ],
      "name": "createLoanRequest",
      "outputs": [],
      "stateMutability": "nonpayable",
      "type": "function"
    },
    {
      "inputs": [
        {
          "internalType": "uint256",
          "name": "loanId",
          "type": "uint256"
        }
      ],
      "name": "getLoanStatus",
      "outputs": [
        {
          "internalType": "string",
          "name": "",
          "type": "string"
        }
      ],
      "stateMutability": "view",
      "type": "function"
    },
    {
      "inputs": [
        {
          "internalType": "uint256",
          "name": "loanId",
          "type": "uint256"
        }
      ],
      "name": "lendFunds",
      "outputs": [],
      "stateMutability": "payable",
      "type": "function"
    },
    {
      "inputs": [],
      "name": "loanCount",
      "outputs": [
        {
          "internalType": "uint256",
          "name": "",
          "type": "uint256"
        }
      ],
      "stateMutability": "view",
      "type": "function"
    },
    {
      "inputs": [
        {
          "internalType": "uint256",
          "name": "",
          "type": "uint256"
        }
      ],
      "name": "loans",
      "outputs": [
        {
          "internalType": "uint256",
          "name": "amount",
          "type": "uint256"
        },
        {
          "internalType": "uint256",
          "name": "interestRate",
          "type": "uint256"
        },
        {
          "internalType": "uint256",
          "name": "repaymentDeadline",
          "type": "uint256"
        },
        {
          "internalType": "address",
          "name": "borrower",
          "type": "address"
        },
        {
          "internalType": "address",
          "name": "lender",
          "type": "address"
        },
        {
          "internalType": "bool",
          "name": "isFunded",
          "type": "bool"
        },
        {
          "internalType": "bool",
          "name": "isRepaid",
          "type": "bool"
        },
        {
          "internalType": "enum LoanRequest.LoanStatus",
          "name": "status",
          "type": "uint8"
        }
      ],
      "stateMutability": "view",
      "type": "function"
    },
    {
      "inputs": [
        {
          "internalType": "uint256",
          "name": "loanId",
          "type": "uint256"
        }
      ],
      "name": "repayLoan",
      "outputs": [],
      "stateMutability": "payable",
      "type": "function"
    }
  ],
  "bytecode": "0x6080604052348015600f57600080fd5b506111fc8061001f6000396000f3fe6080604052600436106100555760003560e01c80631443e4e71461005a5780631c4fd41c14610083578063aa2d5721146100c0578063ab7b1c89146100dc578063ce63094d146100f8578063e1ec3c6814610123575b600080fd5b34801561006657600080fd5b50610081600480360381019061007c9190610b26565b610167565b005b34801561008f57600080fd5b506100aa60048036038101906100a59190610b79565b610378565b6040516100b79190610c36565b60405180910390f35b6100da60048036038101906100d59190610b79565b61064f565b005b6100f660048036038101906100f19190610b79565b610814565b005b34801561010457600080fd5b5061010d610a36565b60405161011a9190610c67565b60405180910390f35b34801561012f57600080fd5b5061014a60048036038101906101459190610b79565b610a3c565b60405161015e989796959493929190610d55565b60405180910390f35b6001600081548092919061017a90610e02565b91905055506040518061010001604052808481526020018381526020018281526020013373ffffffffffffffffffffffffffffffffffffffff168152602001600073ffffffffffffffffffffffffffffffffffffffff168152602001600015158152602001600015158152602001600060038111156101fc576101fb610cde565b5b815250600080600154815260200190815260200160002060008201518160000155602082015181600101556040820151816002015560608201518160030160006101000a81548173ffffffffffffffffffffffffffffffffffffffff021916908373ffffffffffffffffffffffffffffffffffffffff16021790555060808201518160040160006101000a81548173ffffffffffffffffffffffffffffffffffffffff021916908373ffffffffffffffffffffffffffffffffffffffff16021790555060a08201518160040160146101000a81548160ff02191690831515021790555060c08201518160040160156101000a81548160ff02191690831515021790555060e08201518160040160166101000a81548160ff0219169083600381111561032a57610329610cde565b5b02179055509050507fb2cca1719ad611d325136b9c9a4357f412d33694d93c60d4c1b6e922d524cf596001543385858560405161036b959493929190610e4a565b60405180910390a1505050565b606060008211801561038c57506001548211155b6103cb576040517f08c379a00000000000000000000000000000000000000000000000000000000081526004016103c290610ee9565b60405180910390fd5b6000806000848152602001908152602001600020604051806101000160405290816000820154815260200160018201548152602001600282015481526020016003820160009054906101000a900473ffffffffffffffffffffffffffffffffffffffff1673ffffffffffffffffffffffffffffffffffffffff1673ffffffffffffffffffffffffffffffffffffffff1681526020016004820160009054906101000a900473ffffffffffffffffffffffffffffffffffffffff1673ffffffffffffffffffffffffffffffffffffffff1673ffffffffffffffffffffffffffffffffffffffff1681526020016004820160149054906101000a900460ff161515151581526020016004820160159054906101000a900460ff161515151581526020016004820160169054906101000a900460ff1660038111156105105761050f610cde565b5b600381111561052257610521610cde565b5b8152505090508060c0015115610570576040518060400160405280600681526020017f526570616964000000000000000000000000000000000000000000000000000081525091505061064a565b42816040015110801561058557508060c00151155b156105c8576040518060400160405280600981526020017f44656661756c746564000000000000000000000000000000000000000000000081525091505061064a565b8060a0015115610610576040518060400160405280600881526020017f417070726f76656400000000000000000000000000000000000000000000000081525091505061064a565b6040518060400160405280600781526020017f50656e64696e67000000000000000000000000000000000000000000000000008152509150505b919050565b600080600083815260200190815260200160002090506000600381111561067957610678610cde565b5b8160040160169054906101000a900460ff16600381111561069d5761069c610cde565b5b146106dd576040517f08c379a00000000000000000000000000000000000000000000000000000000081526004016106d490610f55565b60405180910390fd5b8060030160009054906101000a900473ffffffffffffffffffffffffffffffffffffffff1673ffffffffffffffffffffffffffffffffffffffff166108fc349081150290604051600060405180830381858888f19350505050158015610747573d6000803e3d6000fd5b5060018160040160146101000a81548160ff021916908315150217905550338160040160006101000a81548173ffffffffffffffffffffffffffffffffffffffff021916908373ffffffffffffffffffffffffffffffffffffffff16021790555060018160040160166101000a81548160ff021916908360038111156107d0576107cf610cde565b5b02179055507fbd7ef6c6281278f6c8ac4ae9ef2f205b52425813c288dd47c377cb6b59c5076e82333460405161080893929190610f75565b60405180910390a15050565b600080600083815260200190815260200160002090508060040160149054906101000a900460ff1661087b576040517f08c379a000000000000000000000000000000000000000000000000000000000815260040161087290610ff8565b60405180910390fd5b8060030160009054906101000a900473ffffffffffffffffffffffffffffffffffffffff1673ffffffffffffffffffffffffffffffffffffffff163373ffffffffffffffffffffffffffffffffffffffff161461090d576040517f08c379a000000000000000000000000000000000000000000000000000000000815260040161090490611064565b60405180910390fd5b6064816001015482600001546109239190611084565b61092d91906110f5565b816000015461093c9190611126565b341461097d576040517f08c379a0000000000000000000000000000000000000000000000000000000008152600401610974906111a6565b60405180910390fd5b8060040160009054906101000a900473ffffffffffffffffffffffffffffffffffffffff1673ffffffffffffffffffffffffffffffffffffffff166108fc349081150290604051600060405180830381858888f193505050501580156109e7573d6000803e3d6000fd5b5060018160040160156101000a81548160ff02191690831515021790555060028160040160166101000a81548160ff02191690836003811115610a2d57610a2c610cde565b5b02179055505050565b60015481565b60006020528060005260406000206000915090508060000154908060010154908060020154908060030160009054906101000a900473ffffffffffffffffffffffffffffffffffffffff16908060040160009054906101000a900473ffffffffffffffffffffffffffffffffffffffff16908060040160149054906101000a900460ff16908060040160159054906101000a900460ff16908060040160169054906101000a900460ff16905088565b600080fd5b6000819050919050565b610b0381610af0565b8114610b0e57600080fd5b50565b600081359050610b2081610afa565b92915050565b600080600060608486031215610b3f57610b3e610aeb565b5b6000610b4d86828701610b11565b9350506020610b5e86828701610b11565b9250506040610b6f86828701610b11565b9150509250925092565b600060208284031215610b8f57610b8e610aeb565b5b6000610b9d84828501610b11565b91505092915050565b600081519050919050565b600082825260208201905092915050565b60005b83811015610be0578082015181840152602081019050610bc5565b60008484015250505050565b6000601f19601f8301169050919050565b6000610c0882610ba6565b610c128185610bb1565b9350610c22818560208601610bc2565b610c2b81610bec565b840191505092915050565b60006020820190508181036000830152610c508184610bfd565b905092915050565b610c6181610af0565b82525050565b6000602082019050610c7c6000830184610c58565b92915050565b600073ffffffffffffffffffffffffffffffffffffffff82169050919050565b6000610cad82610c82565b9050919050565b610cbd81610ca2565b82525050565b60008115159050919050565b610cd881610cc3565b82525050565b7f4e487b7100000000000000000000000000000000000000000000000000000000600052602160045260246000fd5b60048110610d1e57610d1d610cde565b5b50565b6000819050610d2f82610d0d565b919050565b6000610d3f82610d21565b9050919050565b610d4f81610d34565b82525050565b600061010082019050610d6b600083018b610c58565b610d78602083018a610c58565b610d856040830189610c58565b610d926060830188610cb4565b610d9f6080830187610cb4565b610dac60a0830186610ccf565b610db960c0830185610ccf565b610dc660e0830184610d46565b9998505050505050505050565b7f4e487b7100000000000000000000000000000000000000000000000000000000600052601160045260246000fd5b6000610e0d82610af0565b91507fffffffffffffffffffffffffffffffffffffffffffffffffffffffffffffffff8203610e3f57610e3e610dd3565b5b600182019050919050565b600060a082019050610e5f6000830188610c58565b610e6c6020830187610cb4565b610e796040830186610c58565b610e866060830185610c58565b610e936080830184610c58565b9695505050505050565b7f4c6f616e20646f6573206e6f7420657869737400000000000000000000000000600082015250565b6000610ed3601383610bb1565b9150610ede82610e9d565b602082019050919050565b60006020820190508181036000830152610f0281610ec6565b9050919050565b7f4c6f616e2072657175657374206973206e6f74206f70656e0000000000000000600082015250565b6000610f3f601883610bb1565b9150610f4a82610f09565b602082019050919050565b60006020820190508181036000830152610f6e81610f32565b9050919050565b6000606082019050610f8a6000830186610c58565b610f976020830185610cb4565b610fa46040830184610c58565b949350505050565b7f4c6f616e206973206e6f742066756e6465642079657400000000000000000000600082015250565b6000610fe2601683610bb1565b9150610fed82610fac565b602082019050919050565b6000602082019050818103600083015261101181610fd5565b9050919050565b7f4f6e6c7920626f72726f7765722063616e207265706179000000000000000000600082015250565b600061104e601783610bb1565b915061105982611018565b602082019050919050565b6000602082019050818103600083015261107d81611041565b9050919050565b600061108f82610af0565b915061109a83610af0565b92508282026110a881610af0565b915082820484148315176110bf576110be610dd3565b5b5092915050565b7f4e487b7100000000000000000000000000000000000000000000000000000000600052601260045260246000fd5b600061110082610af0565b915061110b83610af0565b92508261111b5761111a6110c6565b5b828204905092915050565b600061113182610af0565b915061113c83610af0565b925082820190508082111561115457611153610dd3565b5b92915050565b7f496e636f72726563742072657061796d656e7420616d6f756e74000000000000600082015250565b6000611190601a83610bb1565b915061119b8261115a565b602082019050919050565b600060208201905081810360008301526111bf81611183565b905091905056fea2646970667358221220bedc7ce1c26bc08ec0f36262a0ddb9dd73ae7e85822f186af21f7b7d31a8be0e64736f6c634300081c0033",
  "linkReferences": {},
  "deployedLinkReferences": {}
}