{
  "_format": "hh-sol-artifact-1",
  "contractName": "LoanRequest",
  "sourceName": "contracts/LoanRequest.sol",
  "abi": [
    {
      "anonymous": false,
      "inputs": [
        {
          "indexed": false,
          "internalType": "uint256",
          "name": "loanId",
          "type": "uint256"
        },
        {
          "indexed": false,
          "internalType": "address",
          "name": "borrower",
          "type": "address"
        },
        {
          "indexed": false,
          "internalType": "uint256",
          "name": "amount",
          "type": "uint256"
        },
        {
          "indexed": false,
          "internalType": "uint256",
          "name": "interestRate",
          "type": "uint256"
        },
        {
          "indexed": false,
          "internalType": "uint256",
          "name": "repaymentDeadline",
          "type": "uint256"
        }
      ],
      "name": "LoanCreated",
      "type": "event"
    },
    {
      "inputs": [
        {
          "internalType": "uint256",
          "name": "amount",
          "type": "uint256"
        },
        {
          "internalType": "uint256",
          "name": "interestRate",
          "type": "uint256"
        },
        {
          "internalType": "uint256",
          "name": "repaymentDeadline",
          "type": "uint256"
        }
      ],
      "name": "createLoanRequest",
      "outputs": [],
      "stateMutability": "nonpayable",
      "type": "function"
    },
    {
      "inputs": [
        {
          "internalType": "uint256",
          "name": "loanId",
          "type": "uint256"
        }
      ],
      "name": "getLoanStatus",
      "outputs": [
        {
          "internalType": "string",
          "name": "",
          "type": "string"
        }
      ],
      "stateMutability": "view",
      "type": "function"
    },
    {
      "inputs": [],
      "name": "loanCount",
      "outputs": [
        {
          "internalType": "uint256",
          "name": "",
          "type": "uint256"
        }
      ],
      "stateMutability": "view",
      "type": "function"
    },
    {
      "inputs": [
        {
          "internalType": "uint256",
          "name": "",
          "type": "uint256"
        }
      ],
      "name": "loans",
      "outputs": [
        {
          "internalType": "uint256",
          "name": "amount",
          "type": "uint256"
        },
        {
          "internalType": "uint256",
          "name": "interestRate",
          "type": "uint256"
        },
        {
          "internalType": "uint256",
          "name": "repaymentDeadline",
          "type": "uint256"
        },
        {
          "internalType": "address",
          "name": "borrower",
          "type": "address"
        },
        {
          "internalType": "address",
          "name": "lender",
          "type": "address"
        },
        {
          "internalType": "bool",
          "name": "isFunded",
          "type": "bool"
        },
        {
          "internalType": "bool",
          "name": "isRepaid",
          "type": "bool"
        },
        {
          "internalType": "enum LoanRequest.LoanStatus",
          "name": "status",
          "type": "uint8"
        }
      ],
      "stateMutability": "view",
      "type": "function"
    }
  ],
  "bytecode": "0x6080604052348015600f57600080fd5b50610ae38061001f6000396000f3fe608060405234801561001057600080fd5b506004361061004c5760003560e01c80631443e4e7146100515780631c4fd41c1461006d578063ce63094d1461009d578063e1ec3c68146100bb575b600080fd5b61006b600480360381019061006691906106ca565b6100f2565b005b6100876004803603810190610082919061071d565b610303565b60405161009491906107da565b60405180910390f35b6100a56105da565b6040516100b2919061080b565b60405180910390f35b6100d560048036038101906100d0919061071d565b6105e0565b6040516100e99897969594939291906108f9565b60405180910390f35b60016000815480929190610105906109a6565b91905055506040518061010001604052808481526020018381526020018281526020013373ffffffffffffffffffffffffffffffffffffffff168152602001600073ffffffffffffffffffffffffffffffffffffffff1681526020016000151581526020016000151581526020016000600381111561018757610186610882565b5b815250600080600154815260200190815260200160002060008201518160000155602082015181600101556040820151816002015560608201518160030160006101000a81548173ffffffffffffffffffffffffffffffffffffffff021916908373ffffffffffffffffffffffffffffffffffffffff16021790555060808201518160040160006101000a81548173ffffffffffffffffffffffffffffffffffffffff021916908373ffffffffffffffffffffffffffffffffffffffff16021790555060a08201518160040160146101000a81548160ff02191690831515021790555060c08201518160040160156101000a81548160ff02191690831515021790555060e08201518160040160166101000a81548160ff021916908360038111156102b5576102b4610882565b5b02179055509050507fb2cca1719ad611d325136b9c9a4357f412d33694d93c60d4c1b6e922d524cf59600154338585856040516102f69594939291906109ee565b60405180910390a1505050565b606060008211801561031757506001548211155b610356576040517f08c379a000000000000000000000000000000000000000000000000000000000815260040161034d90610a8d565b60405180910390fd5b6000806000848152602001908152602001600020604051806101000160405290816000820154815260200160018201548152602001600282015481526020016003820160009054906101000a900473ffffffffffffffffffffffffffffffffffffffff1673ffffffffffffffffffffffffffffffffffffffff1673ffffffffffffffffffffffffffffffffffffffff1681526020016004820160009054906101000a900473ffffffffffffffffffffffffffffffffffffffff1673ffffffffffffffffffffffffffffffffffffffff1673ffffffffffffffffffffffffffffffffffffffff1681526020016004820160149054906101000a900460ff161515151581526020016004820160159054906101000a900460ff161515151581526020016004820160169054906101000a900460ff16600381111561049b5761049a610882565b5b60038111156104ad576104ac610882565b5b8152505090508060c00151156104fb576040518060400160405280600681526020017f52657061696400000000000000000000000000000000000000000000000000008152509150506105d5565b42816040015110801561051057508060c00151155b15610553576040518060400160405280600981526020017f44656661756c74656400000000000000000000000000000000000000000000008152509150506105d5565b8060a001511561059b576040518060400160405280600881526020017f417070726f7665640000000000000000000000000000000000000000000000008152509150506105d5565b6040518060400160405280600781526020017f50656e64696e67000000000000000000000000000000000000000000000000008152509150505b919050565b60015481565b60006020528060005260406000206000915090508060000154908060010154908060020154908060030160009054906101000a900473ffffffffffffffffffffffffffffffffffffffff16908060040160009054906101000a900473ffffffffffffffffffffffffffffffffffffffff16908060040160149054906101000a900460ff16908060040160159054906101000a900460ff16908060040160169054906101000a900460ff16905088565b600080fd5b6000819050919050565b6106a781610694565b81146106b257600080fd5b50565b6000813590506106c48161069e565b92915050565b6000806000606084860312156106e3576106e261068f565b5b60006106f1868287016106b5565b9350506020610702868287016106b5565b9250506040610713868287016106b5565b9150509250925092565b6000602082840312156107335761073261068f565b5b6000610741848285016106b5565b91505092915050565b600081519050919050565b600082825260208201905092915050565b60005b83811015610784578082015181840152602081019050610769565b60008484015250505050565b6000601f19601f8301169050919050565b60006107ac8261074a565b6107b68185610755565b93506107c6818560208601610766565b6107cf81610790565b840191505092915050565b600060208201905081810360008301526107f481846107a1565b905092915050565b61080581610694565b82525050565b600060208201905061082060008301846107fc565b92915050565b600073ffffffffffffffffffffffffffffffffffffffff82169050919050565b600061085182610826565b9050919050565b61086181610846565b82525050565b60008115159050919050565b61087c81610867565b82525050565b7f4e487b7100000000000000000000000000000000000000000000000000000000600052602160045260246000fd5b600481106108c2576108c1610882565b5b50565b60008190506108d3826108b1565b919050565b60006108e3826108c5565b9050919050565b6108f3816108d8565b82525050565b60006101008201905061090f600083018b6107fc565b61091c602083018a6107fc565b61092960408301896107fc565b6109366060830188610858565b6109436080830187610858565b61095060a0830186610873565b61095d60c0830185610873565b61096a60e08301846108ea565b9998505050505050505050565b7f4e487b7100000000000000000000000000000000000000000000000000000000600052601160045260246000fd5b60006109b182610694565b91507fffffffffffffffffffffffffffffffffffffffffffffffffffffffffffffffff82036109e3576109e2610977565b5b600182019050919050565b600060a082019050610a0360008301886107fc565b610a106020830187610858565b610a1d60408301866107fc565b610a2a60608301856107fc565b610a3760808301846107fc565b9695505050505050565b7f4c6f616e20646f6573206e6f7420657869737400000000000000000000000000600082015250565b6000610a77601383610755565b9150610a8282610a41565b602082019050919050565b60006020820190508181036000830152610aa681610a6a565b905091905056fea26469706673582212206099f60efc5cfcbf60537e9e67368749c10a3b27b3f6ae0b819f284e98edf0cb64736f6c634300081c0033",
  "linkReferences": {},
  "deployedLinkReferences": {}
}